:020000040800F2
:1000000000000220B9020008C1020008C502000871
:10001000390300083D0300088503000800000000C4
:10002000000000000000000000000000CD030008F8
:10003000D103000800000000D5030008B91B000828
:10004000E9030008E9030008E9030008E9030008E0
:10005000E9030008E9030008E9030008E9030008D0
:10006000E9030008E9030008E9030008E9030008C0
:10007000E9030008E9030008E9030008E9030008B0
:10008000E9030008E9030008E9030008E9030008A0
:10009000E9030008E9030008E9030008E903000890
:1000A000E9030008E9030008E9030008E903000880
:1000B000E9030008E9030008E9030008E903000870
:1000C000E9030008E9030008E9030008E903000860
:1000D000E9030008E9030008E9030008E903000850
:1000E000E9030008E9030008E9030008E903000840
:1000F000E9030008E9030008E9030008E903000830
:10010000E9030008E9030008E9030008E90300081F
:10011000E9030008E9030008E9030008E90300080F
:10012000E9030008E9030008E9030008E9030008FF
:10013000E9030008E9030008E9030008E9030008EF
:10014000E9030008E9030008E9030008E9030008DF
:10015000E9030008E9030008E9030008E9030008CF
:10016000E9030008E9030008E9030008E9030008BF
:10017000E9030008E9030008E903000800000000A3
:10018000E9030008E903000800B583B001F024FA90
:10019000384B394A1360394A136039490CE00A6810
:1001A0004B6801F10C04886803E01168196004339E
:1001B00004329842F9D82146324B9942EFD32E4B64
:1001C0001A68314B9A4204D12C4B1A682F4B9A4231
:1001D00000D0FEE7274B2E4A13602E4A13602E4BA9
:1001E0000AE0194651F8082B5B6802E00020106015
:1001F00004329A42FAD30B46284A9342F1D3244B55
:100200001B6813B9234B1B6803B1FEE701F0C2FC66
:10021000694601A801F002F9214C224B1C1BA410D5
:10022000002504E01E4B53F8253098470135AC42B9
:10023000F8DC1D4C1D4B1C1BA410002504E01A4BC0
:1002400053F8253098470135AC42F8DC0099019805
:1002500001F0B6FC0546164C164B1C1BA41004E01E
:10026000013C134B53F824309847002CF8DC284607
:1002700001F0B0F8BABADECA000000207C0000200D
:10028000EC030008040400087856341232547698BF
:10029000800000201C010020040400081404000851
:1002A00014040008140400081404000814040008CE
:1002B000140400081404000808B5FFF765FF00BF28
:1002C00000BEFEE71EF0040F0CBFEFF30880EFF353
:1002D00009807146414A10472DE9F04182B0044639
:1002E0008846134B5E6B9F6B9D6A1B6B13F0020F6E
:1002F0000DD00F4BDB6A002B09DA4BF6AB6101F036
:100300005BF920B14FF00042094BDA620CE009487A
:1003100001F0C2F8CDF800803B463246294620461F
:1003200001F0D2F800BEFEE702B0BDE8F08100BFE8
:1003300000ED00E0E82A000800BEFEE71EF0040F12
:100340000CBFEFF30880EFF309807146244A104791
:100350002DE9F04182B004468846084B5E6B9F6BE6
:100360009D6A074801F098F8CDF800803B46324678
:100370002946204601F0A8F800BEFEE700ED00E0A7
:10038000F82A00081EF0040F0CBFEFF30880EFF30B
:1003900009807146134A10472DE9F04182B00446A6
:1003A0008846084B5E6B9F6B9D6A074801F074F8A6
:1003B000CDF800803B4632462946204601F084F8BD
:1003C00000BEFEE700ED00E0042B000800BEFEE7E3
:1003D00000BEFEE700BEFEE770470000D90200083D
:0C03E000510300089903000800BEFEE76E
:1003EC00902B00080000002080000020902B0008BB
:1003FC0000000010000000108000002020010020F0
:08040C000000001000000010C8
:1004200010B504460E4B18784FF47A73B3FBF0F313
:100430000C4A1068B0FBF3F000F0B8F858B90F2C74
:100440000BD8002221464FF0FF3000F06DF8064B2C
:100450001C60002010BD012010BD012010BD00BF98
:1004600008000020140000200400002008B50B4BF9
:100470001A6842F400721A601A6842F480621A60C4
:100480001A6842F480721A60032000F02FF80F20DF
:10049000FFF7C6FF01F016FC002008BD003C02403B
:1004A000034A1368034909780B441360704700BF7F
:1004B0001401002008000020014B1868704700BF9D
:1004C0001401002038B50446FFF7F6FF0546B4F1E5
:1004D000FF3F02D0044B1B781C44FFF7EDFF401B8D
:1004E0008442FAD838BD00BF0800002010B5044689
:1004F000C31E042B03D99221094801F053FB094A7A
:10050000D36823F4E0631B041B0C240204F4E064AE
:10051000234343F0BF6343F40033D36010BD00BFF7
:100520000829000800ED00E070B504460E461546A7
:100530000F2A03D9AA211A4801F034FB0F2E03D940
:10054000AB21174801F02EFB164BDA68C2F30222EA
:10055000C2F10701042928BF0421131D062B01D96C
:10056000033A00E00022012303FA01F1013931408E
:10057000914003FA02F2013A2A400A43002C08DBB8
:100580001201D2B204F1604404F5614484F80023FE
:1005900070BD04F00F041201D2B2034B1A5570BDA6
:1005A0000829000800ED00E014ED00E00138B0F18A
:1005B000807F0AD2064B5860F021064A82F8231049
:1005C0000020986007221A6070470120704700BF22
:1005D00010E000E000ED00E010B50446042805D06E
:1005E00020B140F2C911084801F0DCFA042C05D111
:1005F000064A136843F00403136010BD034A1368EE
:1006000023F00403136010BD0829000810E000E087
:100610002DE9F04383B080460F46A24B984223D089
:1006200003F5806398421FD003F5806398421BD086
:1006300003F58063984217D003F58063984213D086
:1006400003F5806398420FD003F5806398420BD086
:1006500003F58063984207D003F58063984203D086
:10066000B321914801F09EFA3B689AB212B11B0C7B
:100670001B041BB1B4218C4801F094FA7B68012B58
:1006800022D9112B20D0022B1ED0122B1CD0874A2E
:10069000934219D002F58012934215D002F58012D0
:1006A000934211D0A2F5F81293420DD002F58012B8
:1006B000934209D002F58012934205D0032B03D058
:1006C000B521794801F06EFABB68022B03D9B62137
:1006D000754801F067FA002424E10125A5403E6831
:1006E0002E40B54240F01D817B685A1E012A03D975
:1006F000112B01D0122B1DD1FB68032B03D9C8216C
:10070000694801F04FFAD8F80810600003228240CF
:1007100021EA0202FB6883401343C8F80830D8F886
:10072000043023EA05057B68C3F30013A3401D438F
:10073000C8F80450D8F80C304FEA4409032505FAEC
:1007400009F5ED4303EA0502BB6803FA09F3134315
:10075000C8F80C307B68022B01D0122B4AD13B69C0
:10076000C3B3092B36D0ABB3A3B39BB393B3012B65
:1007700030D02FD0022B2DD02CD02BD0032B29D032
:10078000042B27D026D025D0052B23D022D0092B0F
:1007900020D0062B1ED0092B1CD0072B1AD019D025
:1007A00018D0082B16D015D014D0092B12D011D088
:1007B0000A2B0FD00ED00B2B0CD00C2B0AD009D04B
:1007C0000D2B07D00C2B05D00F2B03D0E021364882
:1007D00001F0E8F9E208083258F8220004F00703B3
:1007E00099000F238B4020EA03003B698B400343B1
:1007F00048F82230D8F800301D407B6803F003032E
:1008000003FA09F32B43C8F800307B6813F0805FCC
:1008100000F0878000230193254B5A6C42F48042FC
:100820005A645B6C03F480430193019BA1088A1C0A
:10083000204B53F8220004F003039B000F229A4040
:1008400020EA0200174A90451DD002F580629045CB
:100850001BD002F58062904519D002F58062904568
:1008600017D002F58062904515D002F58062904560
:1008700013D002F58062904511D002F58062904558
:100880001AD1072219E0002217E0012215E0022206
:1008900013E0032211E004220FE005220DE00622FE
:1008A0000BE000BF000002403C29000800001110CE
:1008B0000038024000380140082202FA03F30343E3
:1008C00002311B4A42F821301A4B1A68F34302EAFC
:1008D0000301786810F4803F01D046EA0201154A0E
:1008E0001160526803EA0201786810F4003F01D0F9
:1008F00046EA02010F4A5160926803EA02017868F1
:1009000010F4801F01D046EA02010A4A9160D268C1
:100910001340796811F4001F01D046EA0203054A2A
:10092000D36001340F2C7FF6D8AE03B0BDE8F0835E
:1009300000380140003C014070B5064615460C46A3
:1009400021B940F29F11084801F02CF9012D04D97A
:100950004FF4D071044801F025F90DB1B46170BDB8
:100960002404B46170BD00BF3C290008002800F0D9
:100970004B8270B582B0044603680F2B03D9E8217F
:10098000AB4801F00FF9236813F0010F66D06368DC
:100990004BB1B3F5803F06D0B3F5A02F03D0ED21C6
:1009A000A34801F0FFF8A34B9B6803F00C03042B52
:1009B0000AD0A04B9B6803F00C03082B0DD19D4B74
:1009C0005B6813F4800F08D09A4B1B6813F4003F48
:1009D00044D06368002B41D118E26368B3F5803FCF
:1009E00005D1944A136843F48033136015E0B3F5DE
:1009F000A02F09D18F4B1A6842F480221A601A681E
:100A000042F480321A6008E08A4B1A6822F480327D
:100A10001A601A6822F480221A6063687BB1FFF7BB
:100A20004BFD054605E0FFF747FD401B642800F23B
:100A3000EF81804B1B6813F4003FF4D00EE0FFF70A
:100A40003BFD054605E0FFF737FD401B642800F23B
:100A5000E181784B1B6813F4003FF4D1236813F055
:100A6000020F60D0E368012B04D940F21F117048D7
:100A700001F098F823691F2B04D94FF490716C484A
:100A800001F090F86B4B9B6813F00C0F0AD0694B88
:100A90009B6803F00C03082B16D1664B5B6813F4BC
:100AA000800F11D1634B1B6813F0020F03D0E36872
:100AB000012B40F0B1815F4A136823F0F8032169EC
:100AC00043EAC10313602EE0E368D3B101225A4B1D
:100AD0001A60FFF7F1FC054605E0FFF7EDFC401B4F
:100AE000022800F29B81534B1B6813F0020FF4D0D5
:100AF000504A136823F0F803216943EAC1031360E5
:100B000011E000224C4B1A60FFF7D6FC054605E0C9
:100B1000FFF7D2FC401B022800F28281454B1B6884
:100B200013F0020FF4D1236813F0080F2ED063697D
:100B3000012B04D94FF4B0713D4801F033F86369DB
:100B400093B101223D4B1A60FFF7B6FC054605E064
:100B5000FFF7B2FC401B022800F26481354B5B6F4B
:100B600013F0020FF4D011E00022344B1A60FFF7AB
:100B7000A3FC054605E0FFF79FFC401B022800F29E
:100B800053812C4B5B6F13F0020FF4D1236813F0E9
:100B9000040F00F08B80A368012B06D9052B04D02D
:100BA0004FF4C671224800F0FDFF224B1B6C13F07E
:100BB000805F0DD1002301931E4B1A6C42F08052CE
:100BC0001A641B6C03F080530193019B012500E024
:100BD00000251B4B1B6813F4807F13D1184A136840
:100BE00043F480731360FFF767FC064605E0FFF7E8
:100BF00063FC801B022800F21981114B1B6813F45F
:100C0000807FF4D0A368012B05D10A4A136F43F00B
:100C1000010313671FE0052B14D1064B1A6F42F036
:100C200004021A671A6F42F001021A6713E000BF4C
:100C30006C2900080038024000004742800E4742FD
:100C400000700040874B1A6F22F001021A671A6F7A
:100C500022F004021A67A3688BB1FFF72DFC064649
:100C600007E0FFF729FC801B41F28833984200F22D
:100C7000DF807C4B1B6F13F0020FF2D010E0FFF708
:100C80001BFC064607E0FFF717FC801B41F2883388
:100C9000984200F2CF80734B1B6F13F0020FF2D11A
:100CA00025B1704A136C23F080531364A369022B9F
:100CB00004D940F2CF116C4800F074FFA369002BF7
:100CC00000F0BA80674A926802F00C02082A7BD0D2
:100CD000022B66D1E3693BB1B3F5800F04D04FF42A
:100CE000EC71614800F05EFF236A3F2B04D940F2AB
:100CF000D9115D4800F056FF636A323BB3F5BF7F00
:100D000004D94FF4ED71584800F04CFFA36A022B50
:100D10000AD0042B08D0062B06D0082B04D040F2B2
:100D2000DB11514800F03EFFE36A023B0D2B04D972
:100D30004FF4EE714C4800F035FF00224B4B1A6027
:100D4000FFF7BAFB054604E0FFF7B6FB401B02289D
:100D500074D8444B1B6813F0007FF5D1E269236A15
:100D60001343626A43EA8212A36A5B08013B42EAC8
:100D70000343E26A43EA02633A4A536001223B4B6F
:100D80001A60FFF799FB044604E0FFF795FB001B90
:100D9000022855D8334B1B6813F0007FF5D0002094
:100DA0005DE00022314B1A60FFF786FB044604E049
:100DB000FFF782FB001B022844D82A4B1B6813F064
:100DC000007FF5D100204AE0012B3DD0254B5B6828
:100DD00003F48001E269914238D103F03F02216AB5
:100DE0008A4235D1616A47F6C0721A408A4231D1CF
:100DF00003F44032A16A8A422ED103F07063E26AA2
:100E000093422BD001202AE001207047012026E0E8
:100E1000032024E0032022E0012020E003201EE044
:100E200003201CE003201AE0032018E0032016E052
:100E3000032014E0032012E0002010E003200EE065
:100E400003200CE003200AE0012008E0012006E076
:100E5000012004E0012002E0012000E0002002B0B7
:100E600070BD00BF003802406C2900086000474296
:100E700038B52F4B9B6803F00C03042B55D0082B7F
:100E800001D02C4838BD2A4B5A6802F03F025B68FB
:100E900013F4800F20D0264B5B68C3F38813DC006B
:100EA0000025690141EAD4616001041B61EB05057D
:100EB000A90141EA9461A001001B61EB0501C01882
:100EC00041F100014B0243EAD05344022046194647
:100ED000002300F0F9FE1FE0154B5B68C3F3881395
:100EE000DC000025690141EAD4616001041B61EB6B
:100EF0000505A90141EA9461A001001B61EB050110
:100F0000C01841F100018B0243EA9053840220464D
:100F10001946002300F0D8FE054B5B68C3F301437C
:100F200001335B00B0FBF3F038BD034838BD00BFB0
:100F3000003802400024F40000127A00002800F07B
:100F4000ED8070B504460D460368013B0E2B04D9B5
:100F500040F25121784800F025FE072D04D940F2D7
:100F60005221754800F01EFE744B1B6803F00F03FE
:100F70009D4208D9EBB2714A1370136803F00F0356
:100F80009D4240F0CD80236813F0020F2ED013F065
:100F9000040F04D06A4A936843F4E05393602368D3
:100FA00013F0080F04D0664A936843F460439360DB
:100FB000A368A3B1802B12D0902B10D0A02B0ED001
:100FC000B02B0CD0C02B0AD0D02B08D0E02B06D0F1
:100FD000F02B04D040F27521574800F0E3FD58494A
:100FE0008B6823F0F002A36813438B60236813F02F
:100FF000010F37D06368032B04D94FF41F714E489B
:1010000000F0D0FD6268012A05D14D4B1B6813F436
:10101000003F0ED186E0931E012B05D8484B1B687C
:1010200013F0007F05D17FE0454B1B6813F0020FE2
:101030007CD043498B6823F0030313438B60FFF795
:101040003BFA064606E0FFF737FA801B41F2883389
:1010500098426DD83A4B9B6803F00C036268B3EB7F
:10106000820FF0D1354B1B6803F00F039D4207D26E
:10107000EAB2324B1A701B6803F00F039D4259D13C
:10108000236813F0040F19D0E36883B1B3F5805FD0
:101090000DD0B3F5A05F0AD0B3F5C05F07D0B3F5AC
:1010A000E05F04D040F2BA21234800F07BFD2449E0
:1010B0008B6823F4E052E36813438B60236813F0DA
:1010C000080F1AD0236983B1B3F5805F0DD0B3F553
:1010D000A05F0AD0B3F5C05F07D0B3F5E05F04D0DE
:1010E00040F2C121144800F05DFD154A936823F4D5
:1010F0006043216943EAC1039360FFF7B9FE104BD7
:101100009B68C3F303130F4AD35CD8400E4B18609F
:101110000E4B1868FFF784F9002070BD012070475E
:10112000012070BD012070BD012070BD012070BD87
:10113000032070BD012070BD6C290008003C0240F6
:1011400000380240142B0008140000200400002086
:10115000014B1868704700BF14000020704700BFA3
:1011600010B504460368264A934237D0B3F1804F46
:1011700034D0A2F57C42934230D002F58062934293
:101180002CD002F58062934228D002F5806293420F
:1011900024D002F58062934220D002F5704293423F
:1011A0001CD002F57052934218D002F5806293422F
:1011B00014D002F58062934210D0A2F59832934287
:1011C0000CD002F58062934208D002F5806293420F
:1011D00004D040F285110B4800F0E4FC022384F8AF
:1011E0003D302268936803F00703062B03D0136891
:1011F00043F001031360012384F83D30002010BD4B
:10120000000001409C2900080368304A904212D037
:10121000B0F1804F0FD0A2F57C4290420BD002F586
:101220008062904207D002F58062904203D002F5BE
:101230007842904203D123F070034A681343234A53
:1012400090422AD0B0F1804F27D0A2F57C42904244
:1012500023D002F5806290421FD002F58062904256
:101260001BD002F57842904217D002F5705290429E
:1012700013D002F5806290420FD002F58062904256
:101280000BD0A2F59832904207D002F580629042CE
:1012900003D002F58062904203D123F44073CA6800
:1012A000134323F080034A69134303608B68C362CE
:1012B0000B688362054B984203D003F58063984224
:1012C00001D10B69036301234361704700000140B2
:1012D000002879D010B5044603683C4A934237D0C1
:1012E000B3F1804F34D0A2F57C42934230D002F566
:1012F000806293422CD002F58062934228D002F59E
:101300008062934224D002F58062934220D002F59D
:10131000704293421CD002F57052934218D002F5ED
:101320008062934214D002F58062934210D0A2F5FD
:10133000983293420CD002F58062934208D002F5B5
:101340008062934204D04FF48971214800F02AFC56
:10135000A36863B1102B0AD0202B08D0402B06D0F5
:10136000602B04D040F21311194800F01BFC2369D4
:1013700053B1B3F5807F07D0B3F5007F04D04FF4AD
:101380008A71134800F00EFCA36933B1802B04D09E
:1013900040F215110E4800F005FC94F83D3013F0B2
:1013A000FF0F05D1002384F83C302046FFF7D6FE1E
:1013B000022384F83D30211D2068FFF725FF01231B
:1013C00084F83D30002010BD01207047000001402E
:1013D0009C290008FEE700BF08B50D4B1B6813B938
:1013E0000C4A0B4B1A600A4B1A68C31C23F0030308
:1013F000134409498B4206D900F0F2FD0C23036027
:101400004FF0FF3008BD02490B60104608BD00BF19
:10141000840000202001002000FC01200123036043
:10142000014B0B60704700BF0C0000202DE9F0431A
:1014300085B004460F46435613BB04252846214673
:10144000ABBE04461FE03546102E28BF10250023F2
:1014500006E014F9011B04AA1A4402F8101C013317
:10146000AB42F6D304AA1344002203F8102CE94639
:101470004FF0040840464946ABBE8046761B00E06C
:101480000E46002EDFD1384605B0BDE8F08300BF20
:1014900008B5FFF7CBFF08BD0FB400B583B004ABB0
:1014A00053F8042B01938021064800F0CBFD00285F
:1014B00003DD01460348FFF7EBFF03B05DF804EBE3
:1014C00004B070478C000020F8B504460D4617465E
:1014D0001E462648FFF7E0FF21682548FFF7DCFF9E
:1014E00061682448FFF7D8FFA1682348FFF7D4FFBD
:1014F000E1682248FFF7D0FF21692148FFF7CCFFC0
:1015000061692048FFF7C8FFA1691F48FFF7C4FFC2
:10151000E1691E48FFF7C0FF1D48FFF7BDFF2946E0
:101520001C48FFF7B9FF1C4CE16A1C48FFF7B4FFE9
:10153000216B1B48FFF7B0FFE16B1A48FFF7ACFFC8
:1015400015F0800F03D039461748FFF7A5FF15F4B3
:10155000004F03D031461548FFF79EFF1448FFF7B0
:101560009BFF06991348FFF797FFF8BDCC290008A9
:10157000DC290008EC290008FC2900080C2A0008D6
:101580001C2A00082C2A00083C2A00084C2A0008C3
:101590005C2A0008682A000800ED00E0782A0008AC
:1015A000882A0008982A0008A82A0008B82A0008F3
:1015B000C82A0008D02A000883691A888A4207D1FD
:1015C0000268033A012A05D802338361012070477B
:1015D000002070470020704708B500F009F8024B62
:1015E000024A9A6008BD00BF00ED00E0000000085C
:1015F0004FF00062014B9A60704700BF00ED00E0C1
:10160000224B9B6803F00C03042B07D0082B09D056
:10161000002B2DD11E4A1F4B1A602CE01E4A1D4B79
:101620001A6028E0194B5A685B6803F03F0312F414
:10163000800F09D0184AB2FBF3F2144B5B68C3F376
:10164000881303FB02F208E0114AB2FBF3F30F4ADE
:101650005168C1F3881101FB03F20C4B5B68C3F3C3
:10166000014301335B00B2FBF3F30A4A136002E06B
:10167000074A084B1A60054B9B68C3F30313074ADC
:10168000D15C044A1368CB401360704700380240B5
:101690000024F4001400002000127A00142B00082B
:1016A00038B50546B44C002240212046FFF744F9E6
:1016B000002280212046FFF73FF900224FF480717D
:1016C0002046FFF739F900224FF400712046FFF75A
:1016D00033F900224FF480612046FFF72DF90022F4
:1016E0004FF400612046FFF727F900224FF4005124
:1016F0002046FFF721F90A2D00F23D81DFE815F0C1
:101700000B002F003C005A0078009100B000D00080
:10171000E2000C013001984C012240212046FFF7E5
:101720000BF9012280212046FFF706F901224FF430
:1017300080712046FFF700F901224FF40071204626
:10174000FFF7FAF801224FF480612046FFF7F4F822
:1017500001224FF400612046FFF7EEF838BD864CB9
:10176000012280212046FFF7E7F801224FF4807123
:101770002046FFF7E1F838BD7F4C0122402120468A
:10178000FFF7DAF8012280212046FFF7D5F8012281
:101790004FF400712046FFF7CFF801224FF480612B
:1017A0002046FFF7C9F801224FF400512046FFF709
:1017B000C3F838BD704C012240212046FFF7BCF829
:1017C000012280212046FFF7B7F801224FF48071F3
:1017D0002046FFF7B1F801224FF400712046FFF7D1
:1017E000ABF801224FF400512046FFF7A5F838BDB1
:1017F000614C012280212046FFF79EF801224FF420
:1018000080712046FFF798F801224FF400612046CE
:10181000FFF792F801224FF400512046FFF78CF8B1
:1018200038BD554C012240212046FFF785F80122A2
:101830004FF480712046FFF77FF801224FF40071CA
:101840002046FFF779F801224FF400612046FFF7A8
:1018500073F801224FF400512046FFF76DF838BDB0
:10186000454C01224FF480712046FFF765F80122B4
:101870004FF400712046FFF75FF801224FF48061BA
:101880002046FFF759F801224FF400612046FFF788
:1018900053F801224FF400512046FFF74DF838BDB0
:1018A000354C012240212046FFF746F801228021D5
:1018B0002046FFF741F801224FF480712046FFF7E0
:1018C0003BF838BD2C4C012240212046FFF734F86C
:1018D000012280212046FFF72FF801224FF480716A
:1018E0002046FFF729F801224FF400712046FFF748
:1018F00023F801224FF480612046FFF71DF80122F2
:101900004FF400612046FFF717F801224FF4005111
:101910002046FFF711F838BD174C01224021204620
:10192000FFF70AF8012280212046FFF705F801227F
:101930004FF480712046FEF7FFFF01224FF4007143
:101940002046FEF7F9FF01224FF400612046FEF722
:10195000F3FF01224FF400512046FEF7EDFF38BDA2
:10196000054C012240212046FEF7E6FF012280219E
:101970002046FEF7E1FF38BD0010024010B50E4CC6
:10198000002202212046FEF7D7FF00220421204634
:10199000FEF7D2FF002208212046FEF7CDFF0022ED
:1019A00040212046FEF7C8FF00224FF480712046F8
:1019B000FEF7C2FF10BD00BF000C024008B50138A1
:1019C000092824D8DFE800F0050B1117232323236F
:1019D000231D012202210E48FEF7AEFF08BD0122A1
:1019E00004210B48FEF7A8FF08BD01220821084882
:1019F000FEF7A2FF08BD012240210548FEF79CFF2B
:101A000008BD01224FF480710148FEF795FF08BD23
:101A1000000C024010B50446FFF7B0FF2068FFF746
:101A20003FFE0120FFF7CAFF4FF47A70FEF74AFD30
:101A3000FFF7A4FF6068FFF733FE0220FFF7BEFF49
:101A40004FF47A70FEF73EFDFFF798FFA068FFF7AE
:101A500027FE0320FFF7B2FF4FF47A70FEF732FD46
:101A6000FFF78CFFE068FFF71BFE0420FFF7A6FFDF
:101A70004FF47A70FEF726FDFFF780FF0A20FFF78C
:101A80000FFE0A20FFF79AFF4FF47A70FEF71AFD57
:101A900010BD00BF30B4C46881684B1F18BF01235C
:101AA00042680568092C18BF0133022A18BF0133A8
:101AB000012D18BF0133DBB2013B032B17D8DFE840
:101AC00003F002050A100134C46010E001318160A6
:101AD0000023C3600BE00132426000238360C360D7
:101AE00005E000230360012242608360C36030BCD4
:101AF000704700BF30B595B000240194224B1A6C9A
:101B000042F080521A641B6C03F080530193019BD6
:101B100002941E4B1A6842F480421A601B6803F458
:101B200080430293029B012308934FF4803309936F
:101B30004FF480030F93082310934FF4A87311936D
:101B400002251295072313930E9508A8FEF70EFFA2
:101B50000F230393049505944FF4A05306934FF479
:101B600080530793052103A8FFF7E8F9FFF7F0FA80
:101B7000074BA3FB00308009FEF718FD0420FEF799
:101B80002BFD15B030BD00BF003802400070004092
:101B9000D34D621008B5FEF769FCFFF7ABFFFFF706
:101BA0002FFD08BD08B50A4601460248FFF774FC40
:101BB000FEE700BF242B000808B5FEF771FC08BD46
:101BC00070B5A8B0FEF752FC00240194384D2B6B81
:101BD00043F008032B632B6B03F008030193019B75
:101BE0004FF4A773239301262496269425942794D3
:101BF00023A93048FEF70CFD02942B6B43F0100331
:101C00002B632B6B03F010030293029B4FF43F53A3
:101C10001E931F962194209422941EA92648FEF715
:101C2000F7FC03942B6B43F004032B632B6B03F043
:101C300004030393039B402319931A9603231C93D5
:101C40001B9402231D9319A91C48FEF7E1FC049480
:101C50002B6C43F002032B642B6C03F00203049300
:101C6000049B174B099342F2CF030A930B9449F656
:101C70003F430C930D940E940F9409A8FFF728FB93
:101C800009A8FFF76DFA059406960794089405AB2A
:101C90000FCBFFF7BFFE099B1A6912F0010FF6D0B8
:101CA0006FF001021A6105AB0FCBFFF7F3FEEEE711
:101CB00000380240000C02400010024000080240C0
:101CC00000040040704700BF53B94AB9002908BF5B
:101CD00000281CBF4FF0FF314FF0FF3000F07EB9FD
:101CE000ADF1080C6DE904CE00F006F8DDF804E073
:101CF000DDE9022304B070472DE9F0478C460E461B
:101D00000446089D002B50D18A4217466CD9B2FA7E
:101D100082FEBEF1000F0BD0CEF1200420FA04F4B5
:101D200001FA0EF644EA060C02FA0EF700FA0EF477
:101D30004FEA1749220CBCFBF9F01FFA87F809FBA0
:101D400010C642EA064600FB08F3B34209D9F61969
:101D500000F1FF3280F02281B34240F21F8102384D
:101D60003E44F61AA2B2B6FBF9F309FB136642EA47
:101D7000064403FB08F8A04509D9E41903F1FF3232
:101D800080F00A81A04540F20781023B3C44C8EB49
:101D9000040443EA00400021002D62D024FA0EF42E
:101DA00000232C606B60BDE8F0878B4207D9002DC3
:101DB00055D0002185E841000846BDE8F087B3FA18
:101DC00083F1002940F09080B34202D3824200F2B6
:101DD000F880841A66EB03060120B446002D40D03B
:101DE00085E81010BDE8F08712B90127B7FBF2F7BC
:101DF000B7FA87FEBEF1000F35D1F31B4FEA174843
:101E00001FFA87FC0121B3FBF8F0220C08FB103607
:101E100042EA06460CFB00F3B34207D9F61900F17B
:101E2000FF3202D2B34200F2CE801046F61AA2B2BE
:101E3000B6FBF8F308FB136642EA06440CFB03FC0E
:101E4000A44507D9E41903F1FF3202D2A44500F2F8
:101E5000B5801346CCEB040443EA00409CE72946D6
:101E60002846BDE8F087CEF1200106FA0EF307FA06
:101E70000EF720FA01F94FEA1748CE4049EA030964
:101E8000B6FBF8FA4FEA194408FB1A661FFA87FCFA
:101E900044EA06430AFB0CF29A4200FA0EF40AD90D
:101EA000DB190AF1FF3180F087809A4240F284808A
:101EB000AAF1020A3B449B1A1FFA89F9B3FBF8F115
:101EC00008FB113349EA034301FB0CF69E4207D994
:101ED000DB1901F1FF326BD29E4269D902393B44D2
:101EE0009B1B41EA0A418EE7C1F1200E22FA0EF453
:101EF0008B40234320FA0EF706FA01F44FEA134C05
:101F000026FA0EF63C43B6FBFCF9270C0CFB1966CF
:101F10001FFA83F847EA064609FB08F7B74202FAB8
:101F200001F200FA01FA08D9F61809F1FF3041D29E
:101F3000B7423FD9A9F102091E44F61BA0B2B6FB75
:101F4000FCF40CFB146640EA064704FB08F8B845AD
:101F500007D9FF1804F1FF3028D2B84526D9023C32
:101F60001F4444EA0940C8EB0707A0FB02894F451C
:101F700044464E4614D329D065B3BAEB040367EB4D
:101F8000060707FA0EFECB40CF404EEA030385E872
:101F900088000021BDE8F0871346F8E61046E0E629
:101FA000B8EB020469EB03060138E5E70446D8E71D
:101FB000114695E78146C0E78A467CE7023B3C44F0
:101FC00048E708460AE702383E442FE7C245E7D310
:101FD0003E46D1E72946BDE8F08700BF704700BF05
:101FE000014B1868704700BF7800002030B5141E00
:101FF00005469BB0184604DA8B232B604FF0FF3068
:102000001DE04FF40273ADF80C3014BF04F1FF3340
:102010002346029305934FF6FF7300910491ADF8A8
:102020000E3002461E9B6946284600F073F8431C9A
:10203000BCBF8B232B6014B1009B00221A701BB015
:1020400030BD000007B5009313460A460146034819
:102050000068FFF7CBFF03B05DF804FB78000020B9
:102060002DE9F0478E689E4282460C46914698467E
:102070003ED88A8912F4906F3AD0256809696F1AA0
:102080006569022305EB450595FBF3F57B1C43448D
:102090009D4238BF1D4653050FD5294600F094FBDD
:1020A000064698B13A46216900F01AFBA38923F449
:1020B000906343F08003A38113E02A4600F0E2FB23
:1020C000064670B92169504600F030FB0C23CAF86F
:1020D0000030A38943F04003A3814FF0FF30BDE8F7
:1020E000F087266165613E44ED1B2660A56046468B
:1020F000464528BF464632464946206800F0FBFA6E
:10210000A3689B1BA36023681E4426600020BDE8D3
:10211000F08700002DE9F04F9DB0804603938B8936
:102120001C060D4616460DD50B695BB9402100F023
:102130004BFB2860286118B90C23C8F80030CDE0AB
:1021400040236B610023099320238DF82930DFF8A9
:102150009CB130238DF82A3037463C4614F8013BB9
:102160001BB9B7EB060910D003E0252BF9D02746A1
:10217000F3E74B46324629464046FFF771FF0130F0
:1021800000F0A780099B4B4409933B78002B00F09B
:10219000A08000234FF0FF3204930793059206932B
:1021A0008DF853301A930126052221784E4800F00D
:1021B00047FA671C049B38B14B4A801A06FA00F0B4
:1021C000184304903C46EFE7D90644BF20228DF81F
:1021D00053201A0744BF2B228DF8532022782A2A35
:1021E00003D0079A00210A200BE0039A111D126800
:1021F0000391002A10DA524243F002000792049041
:102200000BE0274601343B78303B092B03D800FB19
:1022100002320121F5E701B107923B782E2B1ED146
:102220007B782A2B0AD1039B1A1D1B680392002B73
:10223000B8BF4FF0FF330237059310E0002305933A
:10224000781C19460A24074601303A78303A092AA0
:1022500003D804FB01210123F5E703B10591032213
:102260003978224800F0ECF940B14023CBEB000074
:1022700003FA00F0049B18430490013739781C4896
:102280008DF8281006227E1C00F0DAF988B1194B6F
:1022900033B9039B073323F007030833039314E098
:1022A00003AB00932A46144B04A94046AFF30080C9
:1022B00007E003AB00932A460F4B04A9404600F009
:1022C00093F8B0F1FF3F824603D0099B5344099332
:1022D00042E7AB895B0601D4099801E04FF0FF307B
:1022E0001DB0BDE8F08F00BF542B00085A2B00082A
:1022F0005E2B000800000000612000082DE9F04777
:1023000091461F460A698B68DDF820809342B8BF6A
:102310001346C9F8003091F8432006460C4612B126
:102320000133C9F800302368990642BFD9F800305C
:102330000233C9F80030256815F0060510D104F104
:10234000190A07E00123524639463046C04701309A
:102350001AD00135E368D9F800209B1A9D42F1DBC1
:1023600094F843302268003318BF012392060FD53A
:10237000E1185A1C302081F84300224494F845109B
:1023800082F84310023303E04FF0FF30BDE8F087DE
:1023900004F1430239463046C0470130F4D0226888
:1023A000D9F80050E36802F00602042A08BF5D1B5A
:1023B0002269A3680CBF25EAE57500259342C4BFD6
:1023C0009B1AED184FF000091A344D4509D001232E
:1023D000224639463046C0470130D5D009F10109BF
:1023E000F3E70020BDE8F0872DE9F04317460A7EA9
:1023F00085B06E2A984606460C460C9B01F1430EAA
:1024000000F0AE8011D8632A22D009D8002A00F04B
:10241000BB80582A40F0CA8081F84520834955E0A6
:10242000642A1ED0692A1CD0C0E0732A00F0B08054
:1024300009D86F2A2ED0702A40F0B8800A6842F07E
:1024400020020A603EE0752A24D0782A3AD0ADE016
:102450001A6801F14205111D1960136884F84230B1
:10246000A8E021681A6811F0800F02D0111D1960D0
:1024700008E011F0400F02F10401196002D0B2F936
:10248000003000E01368002B3CDA2D225B4284F818
:10249000432037E021681A6811F0800F02D0111D27
:1024A000196007E011F0400F02F10401196001D03A
:1024B000138800E01368227E5C496F2A14BF0A2249
:1024C00008221BE078225A4984F8452022681868BF
:1024D00012F0800F00F104051D6003D1550601D5EF
:1024E000038800E00368D00744BF42F02002226066
:1024F0001BB9226822F0200222601022002084F8FA
:10250000430001E049490A226568A560002D08DB07
:10251000206820F0040020602BB9002D7DD1754685
:102520000CE0002B79D07546B3FBF2F002FB1033C0
:10253000CB5C05F8013D03460028F5D1082A0BD1F4
:102540002368DA0708D5236962689A42DEBF302320
:1025500005F8013C05F1FF35C5EB0E0323612EE0C4
:1025600008681A68496910F0800F03D0101D1860C0
:10257000136808E010F0400F02F1040018601368BF
:1025800001D0198000E0196000232361754616E030
:102590001A68111D1960156862680021284600F04C
:1025A0004FF808B1401B6060636804E004F1420525
:1025B00084F8422001232361002384F84330CDF8BE
:1025C00000803B4603AA21463046FFF797FE0130C4
:1025D00002D14FF0FF3026E023692A4639463046C3
:1025E000C0470130F5D023689B0710D5002504F1C2
:1025F000190907E001234A4639463046C0470130F1
:10260000E7D00135E368039A9B1A9D42F2DBE0684C
:10261000039B9842B8BF184605E00B7884F8423017
:1026200004F142058AE705B0BDE8F083652B000898
:10263000762B0008000000000000000000000000F1
:1026400001F0FF01102A2BDB10F0070F08D010F863
:10265000013B013A8B422DD010F0070F42B3F6D167
:10266000F0B441EA012141EA014122F007047FF080
:1026700000070023F0E80256083C85EA010586EAD7
:10268000010685FA47F5A3FA87F586FA47F6A5FA13
:1026900087F68EB9EED1F0BC01F0FF0102F007021F
:1026A00032B110F8013B013A83EA010313B1F8D1CA
:1026B0000020704701387047002D06BF35460338AB
:1026C000073815F0010F07D1013015F4807F02BFE4
:1026D000013015F4C03F0130F0BC0138704700BF35
:1026E00010B5431E0A44914204D011F8014B03F87F
:1026F000014FF8E710BD884210B501EB020301D885
:10270000421E0BE09842FBD28118D21AD34204D069
:1027100013F8014D01F8014DF8E710BD994204D0BE
:1027200011F8014B02F8014FF8E710BD38B5054626
:10273000002946D051F8043C0C1F002BB8BFE41808
:1027400000F0D6F81F4A1368114613B9636014608D
:1027500032E0A3420ED92268A018834204BF186851
:102760005B68636004BF121822600C6024E0A24220
:1027700003D813465A68002AF9D118681918A142DB
:102780000BD12168014458188242196014D1106895
:1027900052685A60014419600EE002D90C232B6084
:1027A0000AE021686018824204BF106852686260C3
:1027B00004BF091821605C602846BDE8384000F07D
:1027C00098B838BD1001002070B5CD1C25F0030568
:1027D00008350C2D38BF0C25002D064601DBA9421B
:1027E00002D90C23336046E000F082F8234B1C68CA
:1027F0001A462146A1B10B685B1B0ED40B2B03D9E3
:102800000B60CC18CD501EE08C420DBF63684B6846
:102810006360136018BF0C4615E00C464968E9E791
:10282000174C23681BB9304600F052F82060294647
:10283000304600F04DF8431C18D0C41C24F00304AB
:10284000A0420DD12560304600F053F804F10B0092
:10285000231D20F00700C31A0ED05A42E25070BD6B
:10286000211A304600F034F80130EBD10C233360EC
:10287000304600F03EF8002070BD00BF100100207F
:102880000C010020F8B5074615460E4621B9114641
:10289000BDE8F840FFF798BF1AB9FFF747FF284691
:1028A000F8BD00F027F885420ED929463846FFF7D3
:1028B0008BFF044650B131462A46FFF711FF3146DF
:1028C0003846FFF733FF01E03046F8BD2046F8BD3B
:1028D00038B5064C0023054608462360FEF77CFD0C
:1028E000431C02D1236803B12B6038BD18010020BE
:1028F0007047704751F8040C0028BEBF091851F802
:10290000043CC018043870472E2E2F7379737465F9
:102910006D2F7372632F73746D333266342D68615B
:102920006C2F73746D3332663478785F68616C5FD6
:10293000636F727465782E63000000002E2E2F7373
:10294000797374656D2F7372632F73746D33326690
:10295000342D68616C2F73746D3332663478785F10
:1029600068616C5F6770696F2E6300002E2E2F7395
:10297000797374656D2F7372632F73746D33326660
:10298000342D68616C2F73746D3332663478785FE0
:1029900068616C5F7263632E630000002E2E2F73DC
:1029A000797374656D2F7372632F73746D33326630
:1029B000342D68616C2F73746D3332663478785FB0
:1029C00068616C5F74696D2E63000000537461630D
:1029D0006B206672616D653A0A000000205230205B
:1029E0003D2020253038580A0000000020523120B8
:1029F0003D2020253038580A0000000020523220A7
:102A00003D2020253038580A000000002052332095
:102A10003D2020253038580A000000002052313275
:102A2000203D20253038580A00000000204C52205C
:102A30003D2020253038580A000000002050432057
:102A40003D2020253038580A000000002050535205
:102A5000203D20253038580A000000004653522FF0
:102A60004641523A0A0000002043465352203D207E
:102A700020253038580A00002048465352203D2077
:102A800020253038580A00002044465352203D206B
:102A900020253038580A00002041465352203D205E
:102AA00020253038580A0000204D4D464152203D27
:102AB00020253038580A00002042464152203D204F
:102AC00020253038580A00004D6973630A00000061
:102AD000204C522F4558435F52455455524E3D208D
:102AE000253038580A0000005B4861726446617501
:102AF0006C745D0A000000005B4275734661756C82
:102B0000745D0A005B55736167654661756C745D41
:102B10000A000000000000000000000001020304A1
:102B20000607080957726F6E6720706172616D65E4
:102B3000746572732076616C75653A2066696C65A0
:102B4000202573206F6E206C696E652025640D0A48
:102B500000000000232D302B2000686C4C006566BF
:102B600067454647003031323334353637383941DE
:102B700042434445460030313233343536373839F4
:072B800061626364656600F9
:082B880070F1FF7F0100000065
:102B9000785634121000000001FFFFFF880000206B
:102BA000000000000024F40000000000000000000D
:102BB0000000000000000000000000000000000015
:102BC0000000000000000000000000000000000005
:102BD00000000000000000000000000000000000F5
:102BE00000000000000000000000000000000000E5
:102BF00000000000000000000000000000000000D5
:102C000000000000000000001800002032547698F8
:040000050800018965
:00000001FF
